{
  "contractName": "CompoundAllocationStrategy",
  "abi": [
    {
      "constant": false,
      "inputs": [],
      "name": "renounceOwnership",
      "outputs": [],
      "payable": false,
      "stateMutability": "nonpayable",
      "type": "function"
    },
    {
      "constant": true,
      "inputs": [],
      "name": "owner",
      "outputs": [
        {
          "internalType": "address",
          "name": "",
          "type": "address"
        }
      ],
      "payable": false,
      "stateMutability": "view",
      "type": "function"
    },
    {
      "constant": true,
      "inputs": [],
      "name": "isOwner",
      "outputs": [
        {
          "internalType": "bool",
          "name": "",
          "type": "bool"
        }
      ],
      "payable": false,
      "stateMutability": "view",
      "type": "function"
    },
    {
      "constant": false,
      "inputs": [
        {
          "internalType": "address",
          "name": "newOwner",
          "type": "address"
        }
      ],
      "name": "transferOwnership",
      "outputs": [],
      "payable": false,
      "stateMutability": "nonpayable",
      "type": "function"
    },
    {
      "inputs": [
        {
          "internalType": "contract CErc20Interface",
          "name": "cToken_",
          "type": "address"
        }
      ],
      "payable": false,
      "stateMutability": "nonpayable",
      "type": "constructor"
    },
    {
      "anonymous": false,
      "inputs": [
        {
          "indexed": true,
          "internalType": "address",
          "name": "previousOwner",
          "type": "address"
        },
        {
          "indexed": true,
          "internalType": "address",
          "name": "newOwner",
          "type": "address"
        }
      ],
      "name": "OwnershipTransferred",
      "type": "event"
    },
    {
      "constant": true,
      "inputs": [],
      "name": "underlying",
      "outputs": [
        {
          "internalType": "address",
          "name": "",
          "type": "address"
        }
      ],
      "payable": false,
      "stateMutability": "view",
      "type": "function"
    },
    {
      "constant": true,
      "inputs": [],
      "name": "exchangeRateStored",
      "outputs": [
        {
          "internalType": "uint256",
          "name": "",
          "type": "uint256"
        }
      ],
      "payable": false,
      "stateMutability": "view",
      "type": "function"
    },
    {
      "constant": false,
      "inputs": [],
      "name": "accrueInterest",
      "outputs": [
        {
          "internalType": "bool",
          "name": "",
          "type": "bool"
        }
      ],
      "payable": false,
      "stateMutability": "nonpayable",
      "type": "function"
    },
    {
      "constant": false,
      "inputs": [
        {
          "internalType": "uint256",
          "name": "investAmount",
          "type": "uint256"
        }
      ],
      "name": "investUnderlying",
      "outputs": [
        {
          "internalType": "uint256",
          "name": "",
          "type": "uint256"
        }
      ],
      "payable": false,
      "stateMutability": "nonpayable",
      "type": "function"
    },
    {
      "constant": false,
      "inputs": [
        {
          "internalType": "uint256",
          "name": "redeemAmount",
          "type": "uint256"
        }
      ],
      "name": "redeemUnderlying",
      "outputs": [
        {
          "internalType": "uint256",
          "name": "",
          "type": "uint256"
        }
      ],
      "payable": false,
      "stateMutability": "nonpayable",
      "type": "function"
    }
  ],
  "bytecode": "0x608060405234801561001057600080fd5b50604051610bac380380610bac8339818101604052602081101561003357600080fd5b5051600080546001600160a01b03191633178082556040516001600160a01b039190911691907f8be0079c531659141344cd1fd0a4f28419497f9722a3daafe3b4186f6b6457e0908290a3600180546001600160a01b0319166001600160a01b038381169190911791829055604080517f6f307dc300000000000000000000000000000000000000000000000000000000815290519290911691636f307dc391600480820192602092909190829003018186803b1580156100f357600080fd5b505afa158015610107573d6000803e3d6000fd5b505050506040513d602081101561011d57600080fd5b5051600280546001600160a01b0319166001600160a01b0390921691909117905550610a5e8061014e6000396000f3fe608060405234801561001057600080fd5b50600436106100935760003560e01c80638da5cb5b116100665780638da5cb5b146100fd5780638f32d59b14610105578063a6afed9514610121578063c17693c014610129578063f2fde38b1461014657610093565b8063182df0f5146100985780636f307dc3146100b2578063715018a6146100d6578063852a12e3146100e0575b600080fd5b6100a061016c565b60408051918252519081900360200190f35b6100ba6101e2565b604080516001600160a01b039092168252519081900360200190f35b6100de610227565b005b6100a0600480360360208110156100f657600080fd5b50356102b8565b6100ba61054c565b61010d61055b565b604080519115158252519081900360200190f35b61010d61056c565b6100a06004803603602081101561013f57600080fd5b50356105e4565b6100de6004803603602081101561015c57600080fd5b50356001600160a01b03166108f0565b6001546040805163182df0f560e01b815290516000926001600160a01b03169163182df0f5916004808301926020929190829003018186803b1580156101b157600080fd5b505afa1580156101c5573d6000803e3d6000fd5b505050506040513d60208110156101db57600080fd5b5051905090565b60015460408051636f307dc360e01b815290516000926001600160a01b031691636f307dc3916004808301926020929190829003018186803b1580156101b157600080fd5b61022f61055b565b61026e576040805162461bcd60e51b81526020600482018190526024820152600080516020610a0a833981519152604482015290519081900360640190fd5b600080546040516001600160a01b03909116907f8be0079c531659141344cd1fd0a4f28419497f9722a3daafe3b4186f6b6457e0908390a3600080546001600160a01b0319169055565b60006102c261055b565b610301576040805162461bcd60e51b81526020600482018190526024820152600080516020610a0a833981519152604482015290519081900360640190fd5b600154604080516318160ddd60e01b815290516000926001600160a01b0316916318160ddd916004808301926020929190829003018186803b15801561034657600080fd5b505afa15801561035a573d6000803e3d6000fd5b505050506040513d602081101561037057600080fd5b50516001546040805163852a12e360e01b81526004810187905290519293506001600160a01b039091169163852a12e3916024808201926020929091908290030181600087803b1580156103c357600080fd5b505af11580156103d7573d6000803e3d6000fd5b505050506040513d60208110156103ed57600080fd5b505115610441576040805162461bcd60e51b815260206004820152601760248201527f72656465656d556e6465726c79696e67206661696c6564000000000000000000604482015290519081900360640190fd5b600154604080516318160ddd60e01b815290516000926001600160a01b0316916318160ddd916004808301926020929190829003018186803b15801561048657600080fd5b505afa15801561049a573d6000803e3d6000fd5b505050506040513d60208110156104b057600080fd5b505190506000828210156104c357508082035b6002546040805163a9059cbb60e01b81523360048201526024810188905290516001600160a01b039092169163a9059cbb916044808201926020929091908290030181600087803b15801561051757600080fd5b505af115801561052b573d6000803e3d6000fd5b505050506040513d602081101561054157600080fd5b509095945050505050565b6000546001600160a01b031690565b6000546001600160a01b0316331490565b6001546040805163a6afed9560e01b815290516000926001600160a01b03169163a6afed9591600480830192602092919082900301818787803b1580156105b257600080fd5b505af11580156105c6573d6000803e3d6000fd5b505050506040513d60208110156105dc57600080fd5b505115905090565b60006105ee61055b565b61062d576040805162461bcd60e51b81526020600482018190526024820152600080516020610a0a833981519152604482015290519081900360640190fd5b600254604080516323b872dd60e01b81523360048201523060248201526044810185905290516001600160a01b03909216916323b872dd916064808201926020929091908290030181600087803b15801561068757600080fd5b505af115801561069b573d6000803e3d6000fd5b505050506040513d60208110156106b157600080fd5b50506002546001546040805163095ea7b360e01b81526001600160a01b039283166004820152602481018690529051919092169163095ea7b39160448083019260209291908290030181600087803b15801561070c57600080fd5b505af1158015610720573d6000803e3d6000fd5b505050506040513d602081101561073657600080fd5b5050600154604080516318160ddd60e01b815290516000926001600160a01b0316916318160ddd916004808301926020929190829003018186803b15801561077d57600080fd5b505afa158015610791573d6000803e3d6000fd5b505050506040513d60208110156107a757600080fd5b50516001546040805163140e25ad60e31b81526004810187905290519293506001600160a01b039091169163a0712d68916024808201926020929091908290030181600087803b1580156107fa57600080fd5b505af115801561080e573d6000803e3d6000fd5b505050506040513d602081101561082457600080fd5b505115610866576040805162461bcd60e51b815260206004820152600b60248201526a1b5a5b9d0819985a5b195960aa1b604482015290519081900360640190fd5b600154604080516318160ddd60e01b815290516000926001600160a01b0316916318160ddd916004808301926020929190829003018186803b1580156108ab57600080fd5b505afa1580156108bf573d6000803e3d6000fd5b505050506040513d60208110156108d557600080fd5b505190506000828211156108e857508181035b949350505050565b6108f861055b565b610937576040805162461bcd60e51b81526020600482018190526024820152600080516020610a0a833981519152604482015290519081900360640190fd5b61094081610943565b50565b6001600160a01b0381166109885760405162461bcd60e51b81526004018080602001828103825260268152602001806109e46026913960400191505060405180910390fd5b600080546040516001600160a01b03808516939216917f8be0079c531659141344cd1fd0a4f28419497f9722a3daafe3b4186f6b6457e091a3600080546001600160a01b0319166001600160a01b039290921691909117905556fe4f776e61626c653a206e6577206f776e657220697320746865207a65726f20616464726573734f776e61626c653a2063616c6c6572206973206e6f7420746865206f776e6572a265627a7a72315820ca8739d4d39f617acc04145292937333480213e8cdfd9640599ae1e873b6c02264736f6c634300050b0032",
  "source": "pragma solidity ^0.5.8;\n\nimport {IAllocationStrategy} from \"./IAllocationStrategy.sol\";\nimport {Ownable} from \"openzeppelin-solidity/contracts/ownership/Ownable.sol\";\nimport {IERC20} from \"openzeppelin-solidity/contracts/token/ERC20/IERC20.sol\";\nimport {CErc20Interface} from \"../compound/contracts/CErc20Interface.sol\";\n\ncontract CompoundAllocationStrategy is IAllocationStrategy, Ownable {\n\n    CErc20Interface private cToken;\n    IERC20 private token;\n\n    constructor(CErc20Interface cToken_) public {\n        cToken = cToken_;\n        token = IERC20(cToken.underlying());\n    }\n\n    /// @dev ISavingStrategy.underlying implementation\n    function underlying() external view returns (address) {\n        return cToken.underlying();\n    }\n\n    /// @dev ISavingStrategy.exchangeRateStored implementation\n    function exchangeRateStored() external view returns (uint256) {\n        return cToken.exchangeRateStored();\n    }\n\n    /// @dev ISavingStrategy.accrueInterest implementation\n    function accrueInterest() external returns (bool) {\n        return cToken.accrueInterest() == 0;\n    }\n\n    /// @dev ISavingStrategy.investUnderlying implementation\n    function investUnderlying(uint256 investAmount) external onlyOwner returns (uint256) {\n        token.transferFrom(msg.sender, address(this), investAmount);\n        token.approve(address(cToken), investAmount);\n        uint256 cTotalBefore = cToken.totalSupply();\n        // TODO should we handle mint failure?\n        require(cToken.mint(investAmount) == 0, \"mint failed\");\n        uint256 cTotalAfter = cToken.totalSupply();\n        uint256 cCreatedAmount;\n        if (cTotalAfter > cTotalBefore) {\n            cCreatedAmount = cTotalAfter - cTotalBefore;\n        } // else can there be case that we mint but we get less cTokens!?\\\n        return cCreatedAmount;\n    }\n\n    /// @dev ISavingStrategy.redeemUnderlying implementation\n    function redeemUnderlying(uint256 redeemAmount) external onlyOwner returns (uint256) {\n        uint256 cTotalBefore = cToken.totalSupply();\n        // TODO should we handle redeem failure?\n        require(cToken.redeemUnderlying(redeemAmount) == 0, \"redeemUnderlying failed\");\n        uint256 cTotalAfter = cToken.totalSupply();\n        uint256 cBurnedAmount;\n        if (cTotalAfter < cTotalBefore) {\n            cBurnedAmount = cTotalBefore - cTotalAfter;\n        } // else can there be case that we end up with more cTokens ?!\n        token.transfer(msg.sender, redeemAmount);\n        return cBurnedAmount;\n    }\n\n}\n",
  "sourcePath": "/home/thisguy/repos/tribute/tribute-rDAI/rtoken-contracts/contracts/CompoundAllocationStrategy.sol",
  "compiler": {
    "name": "solc",
    "version": "0.5.11+commit.c082d0b4.Emscripten.clang"
  },
  "schemaVersion": "3.0.11",
  "updatedAt": "2019-09-30T06:06:11.743Z",
  "devdoc": {
    "methods": {
      "accrueInterest()": {
        "details": "ISavingStrategy.accrueInterest implementation"
      },
      "exchangeRateStored()": {
        "details": "ISavingStrategy.exchangeRateStored implementation"
      },
      "investUnderlying(uint256)": {
        "details": "ISavingStrategy.investUnderlying implementation"
      },
      "isOwner()": {
        "details": "Returns true if the caller is the current owner."
      },
      "owner()": {
        "details": "Returns the address of the current owner."
      },
      "redeemUnderlying(uint256)": {
        "details": "ISavingStrategy.redeemUnderlying implementation"
      },
      "renounceOwnership()": {
        "details": "Leaves the contract without owner. It will not be possible to call `onlyOwner` functions anymore. Can only be called by the current owner.     * > Note: Renouncing ownership will leave the contract without an owner, thereby removing any functionality that is only available to the owner."
      },
      "transferOwnership(address)": {
        "details": "Transfers ownership of the contract to a new account (`newOwner`). Can only be called by the current owner."
      },
      "underlying()": {
        "details": "ISavingStrategy.underlying implementation"
      }
    }
  },
  "userdoc": {
    "methods": {}
  }
}