{
  "contractName": "RToken",
  "abi": [
    {
      "constant": true,
      "inputs": [],
      "name": "name",
      "outputs": [
        {
          "internalType": "string",
          "name": "",
          "type": "string"
        }
      ],
      "payable": false,
      "stateMutability": "view",
      "type": "function"
    },
    {
      "constant": true,
      "inputs": [],
      "name": "totalSupply",
      "outputs": [
        {
          "internalType": "uint256",
          "name": "",
          "type": "uint256"
        }
      ],
      "payable": false,
      "stateMutability": "view",
      "type": "function"
    },
    {
      "constant": true,
      "inputs": [],
      "name": "decimals",
      "outputs": [
        {
          "internalType": "uint256",
          "name": "",
          "type": "uint256"
        }
      ],
      "payable": false,
      "stateMutability": "view",
      "type": "function"
    },
    {
      "constant": false,
      "inputs": [],
      "name": "renounceOwnership",
      "outputs": [],
      "payable": false,
      "stateMutability": "nonpayable",
      "type": "function"
    },
    {
      "constant": true,
      "inputs": [],
      "name": "owner",
      "outputs": [
        {
          "internalType": "address",
          "name": "",
          "type": "address"
        }
      ],
      "payable": false,
      "stateMutability": "view",
      "type": "function"
    },
    {
      "constant": true,
      "inputs": [],
      "name": "isOwner",
      "outputs": [
        {
          "internalType": "bool",
          "name": "",
          "type": "bool"
        }
      ],
      "payable": false,
      "stateMutability": "view",
      "type": "function"
    },
    {
      "constant": true,
      "inputs": [],
      "name": "symbol",
      "outputs": [
        {
          "internalType": "string",
          "name": "",
          "type": "string"
        }
      ],
      "payable": false,
      "stateMutability": "view",
      "type": "function"
    },
    {
      "constant": true,
      "inputs": [],
      "name": "SELF_HAT_ID",
      "outputs": [
        {
          "internalType": "uint256",
          "name": "",
          "type": "uint256"
        }
      ],
      "payable": false,
      "stateMutability": "view",
      "type": "function"
    },
    {
      "constant": false,
      "inputs": [
        {
          "internalType": "address",
          "name": "newOwner",
          "type": "address"
        }
      ],
      "name": "transferOwnership",
      "outputs": [],
      "payable": false,
      "stateMutability": "nonpayable",
      "type": "function"
    },
    {
      "inputs": [
        {
          "internalType": "contract IAllocationStrategy",
          "name": "allocationStrategy",
          "type": "address"
        }
      ],
      "payable": false,
      "stateMutability": "nonpayable",
      "type": "constructor"
    },
    {
      "anonymous": false,
      "inputs": [
        {
          "indexed": true,
          "internalType": "address",
          "name": "previousOwner",
          "type": "address"
        },
        {
          "indexed": true,
          "internalType": "address",
          "name": "newOwner",
          "type": "address"
        }
      ],
      "name": "OwnershipTransferred",
      "type": "event"
    },
    {
      "anonymous": false,
      "inputs": [
        {
          "indexed": true,
          "internalType": "address",
          "name": "minter",
          "type": "address"
        },
        {
          "indexed": false,
          "internalType": "uint256",
          "name": "mintAmount",
          "type": "uint256"
        }
      ],
      "name": "Mint",
      "type": "event"
    },
    {
      "anonymous": false,
      "inputs": [
        {
          "indexed": true,
          "internalType": "address",
          "name": "redeemer",
          "type": "address"
        },
        {
          "indexed": true,
          "internalType": "address",
          "name": "redeemTo",
          "type": "address"
        },
        {
          "indexed": false,
          "internalType": "uint256",
          "name": "redeemAmount",
          "type": "uint256"
        }
      ],
      "name": "Redeem",
      "type": "event"
    },
    {
      "anonymous": false,
      "inputs": [
        {
          "indexed": true,
          "internalType": "address",
          "name": "recipient",
          "type": "address"
        },
        {
          "indexed": false,
          "internalType": "uint256",
          "name": "interestAmount",
          "type": "uint256"
        }
      ],
      "name": "InterestPaid",
      "type": "event"
    },
    {
      "anonymous": false,
      "inputs": [
        {
          "indexed": true,
          "internalType": "uint256",
          "name": "hatID",
          "type": "uint256"
        }
      ],
      "name": "HatCreated",
      "type": "event"
    },
    {
      "anonymous": false,
      "inputs": [
        {
          "indexed": true,
          "internalType": "address",
          "name": "account",
          "type": "address"
        },
        {
          "indexed": true,
          "internalType": "uint256",
          "name": "hatID",
          "type": "uint256"
        }
      ],
      "name": "HatChanged",
      "type": "event"
    },
    {
      "anonymous": false,
      "inputs": [
        {
          "indexed": true,
          "internalType": "address",
          "name": "from",
          "type": "address"
        },
        {
          "indexed": true,
          "internalType": "address",
          "name": "to",
          "type": "address"
        },
        {
          "indexed": false,
          "internalType": "uint256",
          "name": "value",
          "type": "uint256"
        }
      ],
      "name": "Transfer",
      "type": "event"
    },
    {
      "anonymous": false,
      "inputs": [
        {
          "indexed": true,
          "internalType": "address",
          "name": "owner",
          "type": "address"
        },
        {
          "indexed": true,
          "internalType": "address",
          "name": "spender",
          "type": "address"
        },
        {
          "indexed": false,
          "internalType": "uint256",
          "name": "value",
          "type": "uint256"
        }
      ],
      "name": "Approval",
      "type": "event"
    },
    {
      "constant": true,
      "inputs": [
        {
          "internalType": "address",
          "name": "owner",
          "type": "address"
        }
      ],
      "name": "balanceOf",
      "outputs": [
        {
          "internalType": "uint256",
          "name": "",
          "type": "uint256"
        }
      ],
      "payable": false,
      "stateMutability": "view",
      "type": "function"
    },
    {
      "constant": true,
      "inputs": [
        {
          "internalType": "address",
          "name": "owner",
          "type": "address"
        },
        {
          "internalType": "address",
          "name": "spender",
          "type": "address"
        }
      ],
      "name": "allowance",
      "outputs": [
        {
          "internalType": "uint256",
          "name": "",
          "type": "uint256"
        }
      ],
      "payable": false,
      "stateMutability": "view",
      "type": "function"
    },
    {
      "constant": false,
      "inputs": [
        {
          "internalType": "address",
          "name": "spender",
          "type": "address"
        },
        {
          "internalType": "uint256",
          "name": "amount",
          "type": "uint256"
        }
      ],
      "name": "approve",
      "outputs": [
        {
          "internalType": "bool",
          "name": "",
          "type": "bool"
        }
      ],
      "payable": false,
      "stateMutability": "nonpayable",
      "type": "function"
    },
    {
      "constant": false,
      "inputs": [
        {
          "internalType": "address",
          "name": "dst",
          "type": "address"
        },
        {
          "internalType": "uint256",
          "name": "amount",
          "type": "uint256"
        }
      ],
      "name": "transfer",
      "outputs": [
        {
          "internalType": "bool",
          "name": "",
          "type": "bool"
        }
      ],
      "payable": false,
      "stateMutability": "nonpayable",
      "type": "function"
    },
    {
      "constant": false,
      "inputs": [
        {
          "internalType": "address",
          "name": "dst",
          "type": "address"
        }
      ],
      "name": "transferAll",
      "outputs": [
        {
          "internalType": "bool",
          "name": "",
          "type": "bool"
        }
      ],
      "payable": false,
      "stateMutability": "nonpayable",
      "type": "function"
    },
    {
      "constant": false,
      "inputs": [
        {
          "internalType": "address",
          "name": "src",
          "type": "address"
        },
        {
          "internalType": "address",
          "name": "dst",
          "type": "address"
        }
      ],
      "name": "transferAllFrom",
      "outputs": [
        {
          "internalType": "bool",
          "name": "",
          "type": "bool"
        }
      ],
      "payable": false,
      "stateMutability": "nonpayable",
      "type": "function"
    },
    {
      "constant": false,
      "inputs": [
        {
          "internalType": "address",
          "name": "src",
          "type": "address"
        },
        {
          "internalType": "address",
          "name": "dst",
          "type": "address"
        },
        {
          "internalType": "uint256",
          "name": "amount",
          "type": "uint256"
        }
      ],
      "name": "transferFrom",
      "outputs": [
        {
          "internalType": "bool",
          "name": "",
          "type": "bool"
        }
      ],
      "payable": false,
      "stateMutability": "nonpayable",
      "type": "function"
    },
    {
      "constant": false,
      "inputs": [
        {
          "internalType": "uint256",
          "name": "mintAmount",
          "type": "uint256"
        }
      ],
      "name": "mint",
      "outputs": [
        {
          "internalType": "bool",
          "name": "",
          "type": "bool"
        }
      ],
      "payable": false,
      "stateMutability": "nonpayable",
      "type": "function"
    },
    {
      "constant": false,
      "inputs": [
        {
          "internalType": "uint256",
          "name": "mintAmount",
          "type": "uint256"
        },
        {
          "internalType": "uint256",
          "name": "hatID",
          "type": "uint256"
        }
      ],
      "name": "mintWithSelectedHat",
      "outputs": [
        {
          "internalType": "bool",
          "name": "",
          "type": "bool"
        }
      ],
      "payable": false,
      "stateMutability": "nonpayable",
      "type": "function"
    },
    {
      "constant": false,
      "inputs": [
        {
          "internalType": "uint256",
          "name": "mintAmount",
          "type": "uint256"
        },
        {
          "internalType": "address[]",
          "name": "recipients",
          "type": "address[]"
        },
        {
          "internalType": "uint32[]",
          "name": "proportions",
          "type": "uint32[]"
        }
      ],
      "name": "mintWithNewHat",
      "outputs": [
        {
          "internalType": "bool",
          "name": "",
          "type": "bool"
        }
      ],
      "payable": false,
      "stateMutability": "nonpayable",
      "type": "function"
    },
    {
      "constant": false,
      "inputs": [
        {
          "internalType": "uint256",
          "name": "redeemTokens",
          "type": "uint256"
        }
      ],
      "name": "redeem",
      "outputs": [
        {
          "internalType": "bool",
          "name": "",
          "type": "bool"
        }
      ],
      "payable": false,
      "stateMutability": "nonpayable",
      "type": "function"
    },
    {
      "constant": false,
      "inputs": [],
      "name": "redeemAll",
      "outputs": [
        {
          "internalType": "bool",
          "name": "",
          "type": "bool"
        }
      ],
      "payable": false,
      "stateMutability": "nonpayable",
      "type": "function"
    },
    {
      "constant": false,
      "inputs": [
        {
          "internalType": "address",
          "name": "redeemTo",
          "type": "address"
        },
        {
          "internalType": "uint256",
          "name": "redeemTokens",
          "type": "uint256"
        }
      ],
      "name": "redeemAndTransfer",
      "outputs": [
        {
          "internalType": "bool",
          "name": "",
          "type": "bool"
        }
      ],
      "payable": false,
      "stateMutability": "nonpayable",
      "type": "function"
    },
    {
      "constant": false,
      "inputs": [
        {
          "internalType": "address",
          "name": "redeemTo",
          "type": "address"
        }
      ],
      "name": "redeemAndTransferAll",
      "outputs": [
        {
          "internalType": "bool",
          "name": "",
          "type": "bool"
        }
      ],
      "payable": false,
      "stateMutability": "nonpayable",
      "type": "function"
    },
    {
      "constant": false,
      "inputs": [
        {
          "internalType": "address[]",
          "name": "recipients",
          "type": "address[]"
        },
        {
          "internalType": "uint32[]",
          "name": "proportions",
          "type": "uint32[]"
        },
        {
          "internalType": "bool",
          "name": "doChangeHat",
          "type": "bool"
        }
      ],
      "name": "createHat",
      "outputs": [
        {
          "internalType": "uint256",
          "name": "hatID",
          "type": "uint256"
        }
      ],
      "payable": false,
      "stateMutability": "nonpayable",
      "type": "function"
    },
    {
      "constant": false,
      "inputs": [
        {
          "internalType": "uint256",
          "name": "hatID",
          "type": "uint256"
        }
      ],
      "name": "changeHat",
      "outputs": [
        {
          "internalType": "bool",
          "name": "",
          "type": "bool"
        }
      ],
      "payable": false,
      "stateMutability": "nonpayable",
      "type": "function"
    },
    {
      "constant": true,
      "inputs": [],
      "name": "getMaximumHatID",
      "outputs": [
        {
          "internalType": "uint256",
          "name": "hatID",
          "type": "uint256"
        }
      ],
      "payable": false,
      "stateMutability": "view",
      "type": "function"
    },
    {
      "constant": true,
      "inputs": [
        {
          "internalType": "address",
          "name": "owner",
          "type": "address"
        }
      ],
      "name": "getHatByAddress",
      "outputs": [
        {
          "internalType": "uint256",
          "name": "hatID",
          "type": "uint256"
        },
        {
          "internalType": "address[]",
          "name": "recipients",
          "type": "address[]"
        },
        {
          "internalType": "uint32[]",
          "name": "proportions",
          "type": "uint32[]"
        }
      ],
      "payable": false,
      "stateMutability": "view",
      "type": "function"
    },
    {
      "constant": true,
      "inputs": [
        {
          "internalType": "uint256",
          "name": "hatID",
          "type": "uint256"
        }
      ],
      "name": "getHatByID",
      "outputs": [
        {
          "internalType": "address[]",
          "name": "recipients",
          "type": "address[]"
        },
        {
          "internalType": "uint32[]",
          "name": "proportions",
          "type": "uint32[]"
        }
      ],
      "payable": false,
      "stateMutability": "view",
      "type": "function"
    },
    {
      "constant": true,
      "inputs": [
        {
          "internalType": "address",
          "name": "owner",
          "type": "address"
        }
      ],
      "name": "receivedSavingsOf",
      "outputs": [
        {
          "internalType": "uint256",
          "name": "amount",
          "type": "uint256"
        }
      ],
      "payable": false,
      "stateMutability": "view",
      "type": "function"
    },
    {
      "constant": true,
      "inputs": [
        {
          "internalType": "address",
          "name": "owner",
          "type": "address"
        }
      ],
      "name": "receivedLoanOf",
      "outputs": [
        {
          "internalType": "uint256",
          "name": "amount",
          "type": "uint256"
        }
      ],
      "payable": false,
      "stateMutability": "view",
      "type": "function"
    },
    {
      "constant": true,
      "inputs": [
        {
          "internalType": "address",
          "name": "owner",
          "type": "address"
        }
      ],
      "name": "interestPayableOf",
      "outputs": [
        {
          "internalType": "uint256",
          "name": "amount",
          "type": "uint256"
        }
      ],
      "payable": false,
      "stateMutability": "view",
      "type": "function"
    },
    {
      "constant": false,
      "inputs": [
        {
          "internalType": "address",
          "name": "owner",
          "type": "address"
        }
      ],
      "name": "payInterest",
      "outputs": [
        {
          "internalType": "bool",
          "name": "",
          "type": "bool"
        }
      ],
      "payable": false,
      "stateMutability": "nonpayable",
      "type": "function"
    },
    {
      "constant": true,
      "inputs": [],
      "name": "getGlobalStats",
      "outputs": [
        {
          "components": [
            {
              "internalType": "uint256",
              "name": "totalSupply",
              "type": "uint256"
            },
            {
              "internalType": "uint256",
              "name": "totalSavingsAmount",
              "type": "uint256"
            }
          ],
          "internalType": "struct IRToken.GlobalStats",
          "name": "",
          "type": "tuple"
        }
      ],
      "payable": false,
      "stateMutability": "view",
      "type": "function"
    },
    {
      "constant": true,
      "inputs": [
        {
          "internalType": "address",
          "name": "owner",
          "type": "address"
        }
      ],
      "name": "getAccountStats",
      "outputs": [
        {
          "components": [
            {
              "internalType": "uint256",
              "name": "cumulativeInterest",
              "type": "uint256"
            }
          ],
          "internalType": "struct IRToken.AccountStats",
          "name": "",
          "type": "tuple"
        }
      ],
      "payable": false,
      "stateMutability": "view",
      "type": "function"
    },
    {
      "constant": true,
      "inputs": [],
      "name": "getCurrentSavingStrategy",
      "outputs": [
        {
          "internalType": "address",
          "name": "",
          "type": "address"
        }
      ],
      "payable": false,
      "stateMutability": "view",
      "type": "function"
    },
    {
      "constant": true,
      "inputs": [],
      "name": "getSavingAssetBalance",
      "outputs": [
        {
          "internalType": "uint256",
          "name": "nAmount",
          "type": "uint256"
        },
        {
          "internalType": "uint256",
          "name": "sAmount",
          "type": "uint256"
        }
      ],
      "payable": false,
      "stateMutability": "view",
      "type": "function"
    },
    {
      "constant": false,
      "inputs": [
        {
          "internalType": "contract IAllocationStrategy",
          "name": "allocationStrategy",
          "type": "address"
        }
      ],
      "name": "changeAllocationStrategy",
      "outputs": [],
      "payable": false,
      "stateMutability": "nonpayable",
      "type": "function"
    }
  ],
  "bytecode": "0x60c0604052601f60808190527f52656465656d61626c6520444149202872444149206574686265726c696e290060a090815262000040916002919062000282565b506040805180820190915260088082527f72444149746573740000000000000000000000000000000000000000000000006020909201918252620000879160039162000282565b506012600455670de0b6b3a7640000600955348015620000a657600080fd5b5060405162003e5438038062003e54833981016040819052620000c991620004d3565b600080546001600160a01b03191633178082556040516001600160a01b039190911691907f8be0079c531659141344cd1fd0a4f28419497f9722a3daafe3b4186f6b6457e0908290a360018055600680546001600160a01b0319166001600160a01b038381169190911791829055604080517f6f307dc300000000000000000000000000000000000000000000000000000000815290519290911691636f307dc391600480820192602092909190829003018186803b1580156200018c57600080fd5b505afa158015620001a1573d6000803e3d6000fd5b505050506040513d601f19601f82011682018060405250620001c79190810190620004aa565b600780546001600160a01b03929092166001600160a01b031990921691909117905560408051600081830181815260608301845282528251818152602080820190945283830152600b8054600181018083559190925282518051919460029093027f0175b7a638427703f0dbe7bb9bbf987a2551717b34e79f33b5b1008d1fa01db901926200025c9284929091019062000307565b5060208281015180516200027792600185019201906200036d565b50505050506200053f565b828054600181600116156101000203166002900490600052602060002090601f016020900481019282601f10620002c557805160ff1916838001178555620002f5565b82800160010185558215620002f5579182015b82811115620002f5578251825591602001919060010190620002d8565b50620003039291506200041f565b5090565b8280548282559060005260206000209081019282156200035f579160200282015b828111156200035f57825182546001600160a01b0319166001600160a01b0390911617825560209092019160019091019062000328565b50620003039291506200043f565b82805482825590600052602060002090600701600890048101928215620004115791602002820160005b83821115620003dd57835183826101000a81548163ffffffff021916908363ffffffff160217905550926020019260040160208160030104928301926001030262000397565b80156200040f5782816101000a81549063ffffffff0219169055600401602081600301049283019260010302620003dd565b505b506200030392915062000466565b6200043c91905b8082111562000303576000815560010162000426565b90565b6200043c91905b80821115620003035780546001600160a01b031916815560010162000446565b6200043c91905b808211156200030357805463ffffffff191681556001016200046d565b805162000497816200051a565b92915050565b8051620004978162000534565b600060208284031215620004bd57600080fd5b6000620004cb84846200048a565b949350505050565b600060208284031215620004e657600080fd5b6000620004cb84846200049d565b600062000497826200050e565b60006200049782620004f4565b6001600160a01b031690565b6200052581620004f4565b81146200053157600080fd5b50565b620005258162000501565b613905806200054f6000396000f3fe608060405234801561001057600080fd5b50600436106102275760003560e01c806377ede05111610130578063c034d0db116100b8578063d88847951161007c578063d88847951461047e578063db006a7514610494578063dd62ed3e146104a7578063f2fde38b146104ba578063fdbbf8ac146104cd57610227565b8063c034d0db14610435578063c1a2007d1461043d578063d007c64414610445578063d271be3f14610458578063d3ac25c41461046b57610227565b806395d89b41116100ff57806395d89b41146103e1578063a0712d68146103e9578063a3a7e7f3146103fc578063a9059cbb1461040f578063b5dbfc1a1461042257610227565b806377ede0511461039e57806384d4b410146103b15780638da5cb5b146103c45780638f32d59b146103d957610227565b80632f2ba814116101b35780633e20a929116101825780633e20a929146103515780635cde5055146103595780636b4169c31461036c57806370a0823114610381578063715018a61461039457610227565b80632f2ba8141461031b5780632f4350c21461032e578063313ce56714610336578063388c0b8c1461033e57610227565b806313e23e41116101fa57806313e23e411461029f57806318160ddd146102bf5780631cda95d5146102c757806323b872dd146102e857806328cdfaeb146102fb57610227565b80630290cbc81461022c578063054ab01a1461025557806306fdde0314610277578063095ea7b31461028c575b600080fd5b61023f61023a366004612d5e565b6104e0565b60405161024c919061363b565b60405180910390f35b610268610263366004612d5e565b610553565b60405161024c939291906137a4565b61027f6106d0565b60405161024c9190613649565b61023f61029a366004612e21565b61075b565b6102b26102ad366004612d5e565b6107c9565b60405161024c9190613796565b6102b26107eb565b6102da6102d5366004612f13565b6107f1565b60405161024c929190613616565b61023f6102f6366004612dd4565b610953565b61030e610309366004612d5e565b610997565b60405161024c919061377a565b61023f610329366004612f13565b6109ce565b61023f610a0a565b6102b2610a72565b61023f61034c366004612fd6565b610a78565b6102b2610af1565b6102b2610367366004612e51565b610afc565b610374610bb3565b60405161024c9190613788565b6102b261038f366004612d5e565b610c88565b61039c610ca6565b005b6102b26103ac366004612d5e565b610d14565b61023f6103bf366004612d9a565b610d3c565b6103cc610da9565b60405161024c91906135aa565b61023f610db8565b61027f610dc9565b61023f6103f7366004612f13565b610e24565b61023f61040a366004612d5e565b610e3a565b61023f61041d366004612e21565b610ea0565b61023f610430366004612f4f565b610eb9565b6102b2610f70565b6103cc610f76565b61023f610453366004612d5e565b610f85565b61023f610466366004612e21565b610f9b565b61039c610479366004612ef5565b610fe2565b610486611335565b60405161024c9291906137e1565b61023f6104a2366004612f13565b6113db565b6102b26104b5366004612d9a565b6113fc565b61039c6104c8366004612d5e565b611427565b6102b26104db366004612d5e565b611457565b60018054810190819055600090336104f78161150c565b6001600160a01b0381166000908152600c602052604090206001015461051e908590611695565b6001925050600154811461054d5760405162461bcd60e51b81526004016105449061375a565b60405180910390fd5b50919050565b6001600160a01b0381166000908152600c6020526040902054606080821580159061058057506000198314155b156106af5761058d612b30565b600b848154811061059a57fe5b90600052602060002090600202016040518060400160405290816000820180548060200260200160405190810160405280929190818152602001828054801561060c57602002820191906000526020600020905b81546001600160a01b031681526001909101906020018083116105ee575b505050505081526020016001820180548060200260200160405190810160405280929190818152602001828054801561069057602002820191906000526020600020906000905b82829054906101000a900463ffffffff1663ffffffff16815260200190600401906020826003010492830192600103820291508084116106535790505b50505050508152505090508060000151925080602001519150506106c9565b505060408051600080825260208201908152818301909252905b9193909250565b6002805460408051602060018416156101000260001901909316849004601f810184900484028201840190925281815292918301828280156107535780601f1061072857610100808354040283529160200191610753565b820191906000526020600020905b81548152906001019060200180831161073657829003601f168201915b505050505081565b336000818152600a602090815260408083206001600160a01b03871680855292528083208590555191929182907f8c5be1e5ebec7d5bd14f71427d1e84f3dd0314c0f7b2291e5b200ac8c7c3b925906107b5908790613796565b60405180910390a360019150505b92915050565b6001600160a01b0381166000908152600c60205260409020600401545b919050565b60055481565b606080821580159061080557506000198314155b1561093457610812612b30565b600b848154811061081f57fe5b90600052602060002090600202016040518060400160405290816000820180548060200260200160405190810160405280929190818152602001828054801561089157602002820191906000526020600020905b81546001600160a01b03168152600190910190602001808311610873575b505050505081526020016001820180548060200260200160405190810160405280929190818152602001828054801561091557602002820191906000526020600020906000905b82829054906101000a900463ffffffff1663ffffffff16815260200190600401906020826003010492830192600103820291508084116108d85790505b505050505081525050905080600001519250806020015191505061094e565b505060408051600080825260208201908152818301909252905b915091565b6001805481019081905560009061096c3386868661185a565b9150600154811461098f5760405162461bcd60e51b81526004016105449061375a565b509392505050565b61099f612b4a565b506001600160a01b03166000908152600c60209081526040918290208251918201909252600690910154815290565b600180548101908190556000906109e53384611b22565b60019150600154811461054d5760405162461bcd60e51b81526004016105449061375a565b6001805481019081905560009033610a218161150c565b6001600160a01b0381166000908152600c6020526040902060010154610a48908290611695565b60019250506001548114610a6e5760405162461bcd60e51b81526004016105449061375a565b5090565b60045481565b60018054810190819055600090600019831480610a965750600b5483105b610ab25760405162461bcd60e51b81526004016105449061368a565b610abc3384611b22565b610ac584611bb0565b600191506001548114610aea5760405162461bcd60e51b81526004016105449061375a565b5092915050565b600b54600019015b90565b60018054810190819055604080516020808802828101820190935287825260009392610b7692918a918a9182919085019084908082843760009201919091525050604080516020808b0282810182019093528a82529093508a925089918291850190849080828437600092019190915250611ec492505050565b91508215610b8857610b883383611b22565b6001548114610ba95760405162461bcd60e51b81526004016105449061375a565b5095945050505050565b610bbb612b5d565b6000610c6d670de0b6b3a7640000610c61600660009054906101000a90046001600160a01b03166001600160a01b031663182df0f56040518163ffffffff1660e01b815260040160206040518083038186803b158015610c1a57600080fd5b505afa158015610c2e573d6000803e3d6000fd5b505050506040513d601f19601f82011682018060405250610c529190810190612f31565b6008549063ffffffff61209d16565b9063ffffffff6120d716565b60408051808201909152600554815291016020820152905090565b6001600160a01b03166000908152600c602052604090206001015490565b610cae610db8565b610cca5760405162461bcd60e51b81526004016105449061370a565b600080546040516001600160a01b03909116907f8be0079c531659141344cd1fd0a4f28419497f9722a3daafe3b4186f6b6457e0908390a3600080546001600160a01b0319169055565b6001600160a01b0381166000908152600c60205260408120610d358161210c565b9392505050565b60018054810190819055600090610d528461150c565b610d5b8361150c565b6001600160a01b0384166000908152600c6020526040902060010154610d869033908690869061185a565b91506001548114610aea5760405162461bcd60e51b81526004016105449061375a565b6000546001600160a01b031690565b6000546001600160a01b0316331490565b6003805460408051602060026001851615610100026000190190941693909304601f810184900484028201840190925281815292918301828280156107535780601f1061072857610100808354040283529160200191610753565b600180548101908190556000906109e583611bb0565b6001805481019081905560009033610e518161150c565b6001600160a01b0381166000908152600c6020526040902060010154610e7c9082908190879061185a565b925050600154811461054d5760405162461bcd60e51b81526004016105449061375a565b60018054810190819055600090610d863380868661185a565b600180548101908190556040805160208087028281018201909352868252600093928492610f359290918a918a91829185019084908082843760009201919091525050604080516020808b0282810182019093528a82529093508a925089918291850190849080828437600092019190915250611ec492505050565b9050610f413382611b22565b610f4a88611bb0565b60019250506001548114610ba95760405162461bcd60e51b81526004016105449061375a565b60001981565b6006546001600160a01b031690565b600180548101908190556000906109e58361150c565b6001805481019081905560009033610fb28161150c565b610fbc8585611695565b60019250506001548114610aea5760405162461bcd60e51b81526004016105449061375a565b60018054810190819055610ff4610db8565b6110105760405162461bcd60e51b81526004016105449061370a565b60075460408051636f307dc360e01b815290516001600160a01b0392831692851691636f307dc3916004808301926020929190829003018186803b15801561105757600080fd5b505afa15801561106b573d6000803e3d6000fd5b505050506040513d601f19601f8201168201806040525061108f9190810190612d7c565b6001600160a01b0316146110b55760405162461bcd60e51b8152600401610544906136ea565b600680546001600160a01b038481166001600160a01b031983161790925560055460405163852a12e360e01b81529290911691600091839163852a12e3916110ff91600401613796565b602060405180830381600087803b15801561111957600080fd5b505af115801561112d573d6000803e3d6000fd5b505050506040513d601f19601f820116820180604052506111519190810190612f31565b6007546005546040516323b872dd60e01b81529293506001600160a01b03909116916323b872dd9161118991339130916004016135d3565b602060405180830381600087803b1580156111a357600080fd5b505af11580156111b7573d6000803e3d6000fd5b505050506040513d601f19601f820116820180604052506111db9190810190612ed7565b5060075460065460055460405163095ea7b360e01b81526001600160a01b039384169363095ea7b393611213939116916004016135fb565b602060405180830381600087803b15801561122d57600080fd5b505af1158015611241573d6000803e3d6000fd5b505050506040513d601f19601f820116820180604052506112659190810190612ed7565b50600654600554604051630305da4f60e61b81526000926001600160a01b03169163c17693c0916112999190600401613796565b602060405180830381600087803b1580156112b357600080fd5b505af11580156112c7573d6000803e3d6000fd5b505050506040513d601f19601f820116820180604052506112eb9190810190612f31565b905061130982610c6183670de0b6b3a764000063ffffffff61209d16565b6009555050600154821490506113315760405162461bcd60e51b81526004016105449061375a565b5050565b6008546006546040805163182df0f560e01b81529051600093926113d592670de0b6b3a764000092610c61926001600160a01b03169163182df0f5916004808301926020929190829003018186803b15801561139057600080fd5b505afa1580156113a4573d6000803e3d6000fd5b505050506040513d601f19601f820116820180604052506113c89190810190612f31565b849063ffffffff61209d16565b91509091565b60018054810190819055600090336113f28161150c565b61051e8185611695565b6001600160a01b039182166000908152600a6020908152604080832093909416825291909152205490565b61142f610db8565b61144b5760405162461bcd60e51b81526004016105449061370a565b611454816121e2565b50565b6001600160a01b038082166000908152600c60209081526040808320600954600654835163182df0f560e01b81529351959692958795611504959394610c619493169263182df0f59260048083019392829003018186803b1580156114bb57600080fd5b505afa1580156114cf573d6000803e3d6000fd5b505050506040513d601f19601f820116820180604052506114f39190810190612f31565b60058601549063ffffffff61209d16565b949350505050565b6001600160a01b038082166000908152600c60209081526040808320600654825163a6afed9560e01b815292519195169363a6afed9593600480850194919392918390030190829087803b15801561156357600080fd5b505af1158015611577573d6000803e3d6000fd5b505050506040513d601f19601f8201168201806040525061159b9190810190612ed7565b5060006115a78261210c565b905080156116905760068201546115c4908263ffffffff61226316565b600683015560028201546115de908263ffffffff61226316565b600283015560018201546115f8908263ffffffff61226316565b6001830155600554611610908263ffffffff61226316565b6005556040516001600160a01b038416907f16cbc685358ca7d4e6b273dcdf2cb5d18c80b950aa2319b519756cd016233a6c9061164e908490613796565b60405180910390a2826001600160a01b0316306001600160a01b03166000805160206138a3833981519152836040516116879190613796565b60405180910390a35b505050565b336000908152600c60205260409020816116c15760405162461bcd60e51b81526004016105449061372a565b80600101548211156116e55760405162461bcd60e51b8152600401610544906136da565b60006116f13384612288565b6001830154909150611709908463ffffffff61239316565b600183018190556002830154111561172657600182015460028301555b600554611739908463ffffffff61239316565b6005556008548110156117545760088054829003905561175a565b60006008555b60075460405163a9059cbb60e01b81526001600160a01b039091169063a9059cbb9061178c90879087906004016135fb565b602060405180830381600087803b1580156117a657600080fd5b505af11580156117ba573d6000803e3d6000fd5b505050506040513d601f19601f820116820180604052506117de9190810190612ed7565b50604051309033906000805160206138a383398151915290611801908790613796565b60405180910390a3836001600160a01b0316336001600160a01b03167fd12200efa34901b99367694174c3b0d32c99585fdf37c7c26892136ddd0836d98560405161184c9190613796565b60405180910390a350505050565b6000826001600160a01b0316846001600160a01b0316141561188e5760405162461bcd60e51b8152600401610544906136ca565b6118978461150c565b6001600160a01b0384166000908152600c60205260409020600101548211156118d25760405162461bcd60e51b81526004016105449061371a565b60006001600160a01b0386811690861614156118f15750600019611919565b506001600160a01b038085166000908152600a60209081526040808320938916835292905220545b828110156119395760405162461bcd60e51b81526004016105449061365a565b600061194b828563ffffffff61239316565b6001600160a01b0387166000908152600c60205260408120600101549192509061197b908663ffffffff61239316565b6001600160a01b0387166000908152600c6020526040812060010154919250906119ab908763ffffffff61226316565b6001600160a01b0389166000908152600c6020526040902054909150158015906119eb57506001600160a01b0387166000908152600c6020526040902054155b15611a14576001600160a01b0388166000908152600c6020526040902054611a14908890611b22565b6001600160a01b038089166000908152600c60205260408082206001908101869055928a1682529020018190556000198414611a73576001600160a01b038089166000908152600a60209081526040808320938d168352929052208390555b6000611a7f89886123bb565b9050611a8c888883612537565b6001600160a01b0389166000908152600c6020526040902060018101546002909101541115611ad9576001600160a01b0389166000908152600c6020526040902060018101546002909101555b876001600160a01b0316896001600160a01b03166000805160206138a383398151915289604051611b0a9190613796565b60405180910390a35060019998505050505050505050565b6001600160a01b0382166000908152600c60205260409020600181015415611b71576000611b548483600101546123bb565b8383556001830154909150611b6b90859083612537565b50611b75565b8181555b60405182906001600160a01b038516907f9d1772e07de3fd01cec90e0df8d96154b0fa880d76f3098d2ab95727af469faa90600090a3505050565b600754604051636eb1769f60e11b815282916001600160a01b03169063dd62ed3e90611be290339030906004016135b8565b60206040518083038186803b158015611bfa57600080fd5b505afa158015611c0e573d6000803e3d6000fd5b505050506040513d601f19601f82011682018060405250611c329190810190612f31565b1015611c505760405162461bcd60e51b81526004016105449061373a565b336000818152600c60205260409081902060075491516323b872dd60e01b815290926001600160a01b03909216916323b872dd91611c959190309087906004016135d3565b602060405180830381600087803b158015611caf57600080fd5b505af1158015611cc3573d6000803e3d6000fd5b505050506040513d601f19601f82011682018060405250611ce79190810190612ed7565b5060075460065460405163095ea7b360e01b81526001600160a01b039283169263095ea7b392611d1e9291169086906004016135fb565b602060405180830381600087803b158015611d3857600080fd5b505af1158015611d4c573d6000803e3d6000fd5b505050506040513d601f19601f82011682018060405250611d709190810190612ed7565b50600654604051630305da4f60e61b81526000916001600160a01b03169063c17693c090611da2908690600401613796565b602060405180830381600087803b158015611dbc57600080fd5b505af1158015611dd0573d6000803e3d6000fd5b505050506040513d601f19601f82011682018060405250611df49190810190612f31565b600554909150611e0a908463ffffffff61226316565b6005556001820154611e22908463ffffffff61226316565b60018301556008805482019055600954600090611e5490670de0b6b3a764000090610c6190859063ffffffff61209d16565b9050611e61338583612537565b336001600160a01b03167f0f6798a560793a54c3bcfe86a93cde1e73087d944c0ea20544137d412139688585604051611e9a9190613796565b60405180910390a2604051339030906000805160206138a38339815191529061184c908890613796565b6000806000845111611ee85760405162461bcd60e51b81526004016105449061376a565b8251845114611f095760405162461bcd60e51b81526004016105449061367a565b506000805b8451821015611f79576000848381518110611f2557fe5b602002602001015163ffffffff1611611f505760405162461bcd60e51b81526004016105449061374a565b838281518110611f5c57fe5b602002602001015163ffffffff1681019050816001019150611f0e565b600091505b8351821015611fe3578063ffffffff8016858481518110611f9b57fe5b602002602001015163ffffffff160281611fb157fe5b04848381518110611fbe57fe5b602002602001019063ffffffff16908163ffffffff1681525050816001019150611f7e565b604080518082019091528581526020808201869052600b80546001818101808455600093909352845180519195939460029093027f0175b7a638427703f0dbe7bb9bbf987a2551717b34e79f33b5b1008d1fa01db9019261204992849290910190612b77565b5060208281015180516120629260018501920190612bd8565b505050039250827f755babe5551737dcd4c723af196cff0ed1fa99a4c6957c62262d6b1425f864aa60405160405180910390a2505092915050565b6000826120ac575060006107c3565b828202828482816120b957fe5b0414610d355760405162461bcd60e51b8152600401610544906136fa565b60008082116120f85760405162461bcd60e51b8152600401610544906136ba565b600082848161210357fe5b04949350505050565b6000806121af600954610c61600660009054906101000a90046001600160a01b03166001600160a01b031663182df0f56040518163ffffffff1660e01b815260040160206040518083038186803b15801561216657600080fd5b505afa15801561217a573d6000803e3d6000fd5b505050506040513d601f19601f8201168201806040525061219e9190810190612f31565b60058701549063ffffffff61209d16565b905082600201548360040154018111156121d857826002015483600401548203039150506107e6565b60009150506107e6565b6001600160a01b0381166122085760405162461bcd60e51b81526004016105449061366a565b600080546040516001600160a01b03808516939216917f8be0079c531659141344cd1fd0a4f28419497f9722a3daafe3b4186f6b6457e091a3600080546001600160a01b0319166001600160a01b0392909216919091179055565b600082820183811015610d355760405162461bcd60e51b81526004016105449061369a565b6001600160a01b0382166000908152600c6020526040812080548290600b90600019146122b65782546122b9565b60005b815481106122c357fe5b6000918252602090912060065460405163852a12e360e01b8152600290930290910192506001600160a01b03169063852a12e390612305908790600401613796565b602060405180830381600087803b15801561231f57600080fd5b505af1158015612333573d6000803e3d6000fd5b505050506040513d601f19601f820116820180604052506123579190810190612f31565b9250600061237c670de0b6b3a7640000610c616009548761209d90919063ffffffff16565b905061238a83838784612887565b50505092915050565b6000828211156123b55760405162461bcd60e51b8152600401610544906136aa565b50900390565b6001600160a01b0382166000908152600c6020526040812080548290600b90600019146123e95782546123ec565b60005b815481106123f657fe5b90600052602060002090600202019050600660009054906101000a90046001600160a01b03166001600160a01b031663a6afed956040518163ffffffff1660e01b8152600401602060405180830381600087803b15801561245657600080fd5b505af115801561246a573d6000803e3d6000fd5b505050506040513d601f19601f8201168201806040525061248e9190810190612ed7565b506006546040805163182df0f560e01b81529051612521926001600160a01b03169163182df0f5916004808301926020929190829003018186803b1580156124d557600080fd5b505afa1580156124e9573d6000803e3d6000fd5b505050506040513d601f19601f8201168201806040525061250d9190810190612f31565b600954610c6190879063ffffffff61209d16565b925061252f82828686612887565b505092915050565b6001600160a01b0383166000908152600c602052604081208054909190600b9060001914612566578254612569565b60005b8154811061257357fe5b90600052602060002090600202019050606081600001805490506040519080825280602002602001820160405280156125b6578160200160208202803883390190505b508254909150600090156127e75750600085855b60018501548310156127e0576000600c60008760000186815481106125eb57fe5b60009182526020808320909101546001600160a01b031683528201929092526040019020600187015481549192506000190185149061264357600186868151811061263257fe5b911515602092830291909101909101525b6000816126935763ffffffff801688600101878154811061266057fe5b6000918252602090912060088204015460079091166004026101000a900463ffffffff168c028161268d57fe5b04612695565b845b90506126e1818a60030160008b6000018a815481106126b057fe5b60009182526020808320909101546001600160a01b031683528201929092526040019020549063ffffffff61226316565b8960030160008a60000189815481106126f657fe5b60009182526020808320909101546001600160a01b031683528201929092526040019020556004830154612730908263ffffffff61226316565b60048401558085111561274757808503945061274c565b600094505b60008261279c5763ffffffff801689600101888154811061276957fe5b6000918252602090912060088204015460079091166004026101000a900463ffffffff168c028161279657fe5b0461279e565b845b60058501549091506127b6908263ffffffff61226316565b60058501558085106127cc5780850394506127d1565b600094505b505050508260010192506125ca565b505061281c565b60048401546127fc908763ffffffff61226316565b60048501556005840154612816908663ffffffff61226316565b60058501555b5060005b600183015481101561287e5781818151811061283857fe5b6020026020010151156128765761287683600001828154811061285757fe5b60009182526020909120015485546001600160a01b0390911690611b22565b600101612820565b50505050505050565b825460009015612ae15750600082825b6001860154831015612ada576000600c60008860000186815481106128b857fe5b60009182526020808320909101546001600160a01b031683528201929092526040018120600189015490925060001901851490816129395763ffffffff801689600101878154811061290657fe5b6000918252602090912060088204015460079091166004026101000a900463ffffffff1689028161293357fe5b0461293b565b845b90508083600401541115612959576004830180548290039055612961565b600060048401555b808a60030160008b600001898154811061297757fe5b60009182526020808320909101546001600160a01b0316835282019290925260400190205411156129e957808a60030160008b60000189815481106129b857fe5b60009182526020808320909101546001600160a01b0316835282019290925260400190208054919091039055612a26565b60008a60030160008b6000018981548110612a0057fe5b60009182526020808320909101546001600160a01b031683528201929092526040019020555b80851115612a38578085039450612a3d565b600094505b600082612a8d5763ffffffff80168a6001018881548110612a5a57fe5b6000918252602090912060088204015460079091166004026101000a900463ffffffff16890281612a8757fe5b04612a8f565b845b90508084600501541115612aad576005840180548290039055612ab5565b600060058501555b808510612ac6578085039450612acb565b600094505b50505050826001019250612897565b5050612b29565b8285600401541115612afd576004850180548490039055612b05565b600060048601555b8185600501541115612b21576005850180548390039055612b29565b600060058601555b5050505050565b604051806040016040528060608152602001606081525090565b6040518060200160405280600081525090565b604051806040016040528060008152602001600081525090565b828054828255906000526020600020908101928215612bcc579160200282015b82811115612bcc57825182546001600160a01b0319166001600160a01b03909116178255602090920191600190910190612b97565b50610a6e929150612c83565b82805482825590600052602060002090600701600890048101928215612c775791602002820160005b83821115612c4557835183826101000a81548163ffffffff021916908363ffffffff1602179055509260200192600401602081600301049283019260010302612c01565b8015612c755782816101000a81549063ffffffff0219169055600401602081600301049283019260010302612c45565b505b50610a6e929150612ca7565b610af991905b80821115610a6e5780546001600160a01b0319168155600101612c89565b610af991905b80821115610a6e57805463ffffffff19168155600101612cad565b80356107c381613873565b80516107c381613873565b60008083601f840112612cf057600080fd5b50813567ffffffffffffffff811115612d0857600080fd5b602083019150836020820283011115612d2057600080fd5b9250929050565b80356107c381613887565b80516107c381613887565b80356107c381613890565b80356107c381613899565b80516107c381613899565b600060208284031215612d7057600080fd5b60006115048484612cc8565b600060208284031215612d8e57600080fd5b60006115048484612cd3565b60008060408385031215612dad57600080fd5b6000612db98585612cc8565b9250506020612dca85828601612cc8565b9150509250929050565b600080600060608486031215612de957600080fd5b6000612df58686612cc8565b9350506020612e0686828701612cc8565b9250506040612e1786828701612d48565b9150509250925092565b60008060408385031215612e3457600080fd5b6000612e408585612cc8565b9250506020612dca85828601612d48565b600080600080600060608688031215612e6957600080fd5b853567ffffffffffffffff811115612e8057600080fd5b612e8c88828901612cde565b9550955050602086013567ffffffffffffffff811115612eab57600080fd5b612eb788828901612cde565b93509350506040612eca88828901612d27565b9150509295509295909350565b600060208284031215612ee957600080fd5b60006115048484612d32565b600060208284031215612f0757600080fd5b60006115048484612d3d565b600060208284031215612f2557600080fd5b60006115048484612d48565b600060208284031215612f4357600080fd5b60006115048484612d53565b600080600080600060608688031215612f6757600080fd5b6000612f738888612d48565b955050602086013567ffffffffffffffff811115612f9057600080fd5b612f9c88828901612cde565b9450945050604086013567ffffffffffffffff811115612fbb57600080fd5b612fc788828901612cde565b92509250509295509295909350565b60008060408385031215612fe957600080fd5b6000612e408585612d48565b60006130018383613024565b505060200190565b600061300183836135a1565b61301e81613832565b82525050565b61301e81613802565b6000613038826137f5565b61304281856137f9565b935061304d836137ef565b8060005b8381101561307b5781516130658882612ff5565b9750613070836137ef565b925050600101613051565b509495945050505050565b6000613091826137f5565b61309b81856137f9565b93506130a6836137ef565b8060005b8381101561307b5781516130be8882613009565b97506130c9836137ef565b9250506001016130aa565b61301e8161380d565b60006130e8826137f5565b6130f281856137f9565b935061310281856020860161383d565b61310b81613869565b9093019392505050565b60006131226021836137f9565b7f4e6f7420656e6f75676820616c6c6f77616e636520666f72207472616e7366658152603960f91b602082015260400192915050565b60006131656026836137f9565b7f4f776e61626c653a206e6577206f776e657220697320746865207a65726f206181526564647265737360d01b602082015260400192915050565b60006131ad6020836137f9565b7f496e76616c6964206861743a206c656e677468206e6f74206d61746368696e67815260200192915050565b60006131e6600e836137f9565b6d125b9d985b1a59081a185d08125160921b815260200192915050565b6000613210601b836137f9565b7f536166654d6174683a206164646974696f6e206f766572666c6f770000000000815260200192915050565b6000613249601e836137f9565b7f536166654d6174683a207375627472616374696f6e206f766572666c6f770000815260200192915050565b6000613282601a836137f9565b7f536166654d6174683a206469766973696f6e206279207a65726f000000000000815260200192915050565b60006132bb6018836137f9565b7f7372632073686f756c64206e6f7420657175616c206473740000000000000000815260200192915050565b60006132f4601c836137f9565b7f4e6f7420656e6f7567682062616c616e636520746f2072656465656d00000000815260200192915050565b600061332d6032836137f9565b7f4e65772073747261746567792073686f756c642068617665207468652073616d81527119481d5b99195c9b1e5a5b99c8185cdcd95d60721b602082015260400192915050565b60006133816021836137f9565b7f536166654d6174683a206d756c7469706c69636174696f6e206f766572666c6f8152607760f81b602082015260400192915050565b60006133c46020836137f9565b7f4f776e61626c653a2063616c6c6572206973206e6f7420746865206f776e6572815260200192915050565b60006133fd601e836137f9565b7f4e6f7420656e6f7567682062616c616e636520746f207472616e736665720000815260200192915050565b6000613436601c836137f9565b7f52656465656d20616d6f756e742063616e6e6f74206265207a65726f00000000815260200192915050565b600061346f6014836137f9565b734e6f7420656e6f75676820616c6c6f77616e636560601b815260200192915050565b600061349f602f836137f9565b7f496e76616c6964206861743a2070726f706f7274696f6e2073686f756c64206281526e065206c6172676572207468616e203608c1b602082015260400192915050565b60006134f0601f836137f9565b7f5265656e7472616e637947756172643a207265656e7472616e742063616c6c00815260200192915050565b60006135296023836137f9565b7f496e76616c6964206861743a206174206c65617374206f6e6520726563697069815262195b9d60ea1b602082015260400192915050565b805160208301906135728482613598565b50505050565b805160408301906135898482613598565b50602082015161357260208501825b61301e81610af9565b61301e81613829565b602081016107c38284613024565b604081016135c68285613015565b610d356020830184613024565b606081016135e18286613015565b6135ee6020830185613024565b6115046040830184613598565b604081016136098285613024565b610d356020830184613598565b60408082528101613627818561302d565b905081810360208301526115048184613086565b602081016107c382846130d4565b60208082528101610d3581846130dd565b602080825281016107c381613115565b602080825281016107c381613158565b602080825281016107c3816131a0565b602080825281016107c3816131d9565b602080825281016107c381613203565b602080825281016107c38161323c565b602080825281016107c381613275565b602080825281016107c3816132ae565b602080825281016107c3816132e7565b602080825281016107c381613320565b602080825281016107c381613374565b602080825281016107c3816133b7565b602080825281016107c3816133f0565b602080825281016107c381613429565b602080825281016107c381613462565b602080825281016107c381613492565b602080825281016107c3816134e3565b602080825281016107c38161351c565b602081016107c38284613561565b604081016107c38284613578565b602081016107c38284613598565b606081016137b28286613598565b81810360208301526137c4818561302d565b905081810360408301526137d88184613086565b95945050505050565b604081016136098285613598565b60200190565b5190565b90815260200190565b60006107c38261381d565b151590565b60006107c382613802565b6001600160a01b031690565b63ffffffff1690565b60006107c382613812565b60005b83811015613858578181015183820152602001613840565b838111156135725750506000910152565b601f01601f191690565b61387c81613802565b811461145457600080fd5b61387c8161380d565b61387c81613812565b61387c81610af956feddf252ad1be2c89b69c2b068fc378daa952ba7f163c4a11628f55a4df523b3efa365627a7a7231582044279a76e6d4202a5cc62d21025620feb0c7d4b94dbd458d4aedce6eb6292c496c6578706572696d656e74616cf564736f6c634300050b0040",
  "source": "pragma solidity ^0.5.8;\npragma experimental ABIEncoderV2;\n\nimport {SafeMath} from \"openzeppelin-solidity/contracts/math/SafeMath.sol\";\nimport {Ownable} from \"openzeppelin-solidity/contracts/ownership/Ownable.sol\";\nimport {ReentrancyGuard} from \"openzeppelin-solidity/contracts/utils/ReentrancyGuard.sol\";\nimport {IERC20, IRToken} from \"./IRToken.sol\";\nimport {IAllocationStrategy} from \"./IAllocationStrategy.sol\";\n\n/**\n * @notice RToken an ERC20 token that is 1:1 redeemable to its underlying ERC20 token.\n */\ncontract RToken is IRToken, Ownable, ReentrancyGuard {\n\n    using SafeMath for uint256;\n\n    uint256 public constant SELF_HAT_ID = uint256(int256(-1));\n\n    uint32 constant PROPORTION_BASE = 0xFFFFFFFF;\n\n    //\n    // public structures\n    //\n\n    /**\n     * @notice Hat structure describes who are the recipients of the interest\n     *\n     * To be a valid hat structure:\n     *   - at least one recipient\n     *   - recipients.length == proportions.length\n     *   - each value in proportions should be greater than 0\n     */\n    struct Hat {\n        address[] recipients;\n        uint32[] proportions;\n    }\n\n    /**\n     * @notice Create rToken linked with cToken at `cToken_`\n     */\n    constructor(IAllocationStrategy allocationStrategy) public {\n        ias = allocationStrategy;\n        token = IERC20(ias.underlying());\n        // special hat aka. zero hat : hatID = 0\n        hats.push(Hat(new address[](0), new uint32[](0)));\n    }\n\n    //\n    // ERC20 Interface\n    //\n\n    /**\n     * @notice EIP-20 token name for this token\n     */\n    string public name = \"Redeemable DAI (rDAI ethberlin)\";\n\n    /**\n     * @notice EIP-20 token symbol for this token\n     */\n    string public symbol = \"rDAItest\";\n\n    /**\n     * @notice EIP-20 token decimals for this token\n     */\n    uint256 public decimals = 18;\n\n     /**\n      * @notice Total number of tokens in circulation\n      */\n    uint256 public totalSupply;\n\n    /**\n     * @notice Returns the amount of tokens owned by `account`.\n     */\n    function balanceOf(address owner) external view returns (uint256) {\n        return accounts[owner].rAmount;\n    }\n\n    /**\n     * @notice Returns the remaining number of tokens that `spender` will be\n     * allowed to spend on behalf of `owner` through `transferFrom`. This is\n     * zero by default.\n     *\n     * This value changes when `approve` or `transferFrom` are called.\n     */\n    function allowance(address owner, address spender) external view returns (uint256) {\n        return transferAllowances[owner][spender];\n    }\n\n    /**\n     * @notice Sets `amount` as the allowance of `spender` over the caller's tokens.\n     *\n     * Returns a boolean value indicating whether the operation succeeded.\n     *\n     * > Beware that changing an allowance with this method brings the risk\n     * that someone may use both the old and the new allowance by unfortunate\n     * transaction ordering. One possible solution to mitigate this race\n     * condition is to first reduce the spender's allowance to 0 and set the\n     * desired value afterwards:\n     * https://github.com/ethereum/EIPs/issues/20#issuecomment-263524729\n     *\n     * Emits an `Approval` event.\n     */\n    function approve(address spender, uint256 amount) external returns (bool) {\n        address src = msg.sender;\n        transferAllowances[src][spender] = amount;\n        emit Approval(src, spender, amount);\n        return true;\n    }\n\n    /**\n     * @notice Moves `amount` tokens from the caller's account to `dst`.\n     *\n     * Returns a boolean value indicating whether the operation succeeded.\n     *\n     * Emits a `Transfer` event.\n     * May also emit `InterestPaid` event.\n     */\n    function transfer(address dst, uint256 amount) external nonReentrant returns (bool) {\n        return transferInternal(msg.sender, msg.sender, dst, amount);\n    }\n\n    /// @dev IRToken.transferAll implementation\n    function transferAll(address dst) external nonReentrant returns (bool) {\n        address src = msg.sender;\n        payInterestInternal(src);\n        return transferInternal(src, src, dst, accounts[src].rAmount);\n    }\n\n    /// @dev IRToken.transferAllFrom implementation\n    function transferAllFrom(address src, address dst) external nonReentrant returns (bool) {\n        payInterestInternal(src);\n        payInterestInternal(dst);\n        return transferInternal(msg.sender, src, dst, accounts[src].rAmount);\n    }\n\n    /**\n     * @notice Moves `amount` tokens from `sender` to `recipient` using the\n     * allowance mechanism. `amount` is then deducted from the caller's\n     * allowance.\n     *\n     * Returns a boolean value indicating whether the operation succeeded.\n     *\n     * Emits a `Transfer` event.\n     */\n    function transferFrom(address src, address dst, uint256 amount) external nonReentrant returns (bool) {\n        return transferInternal(msg.sender, src, dst, amount);\n    }\n\n    //\n    // rToken interface\n    //\n\n    /// @dev IRToken.mint implementation\n    function mint(uint256 mintAmount) external nonReentrant returns (bool) {\n        mintInternal(mintAmount);\n        return true;\n    }\n\n    /// @dev IRToken.mintWithSelectedHat implementation\n    function mintWithSelectedHat(uint256 mintAmount, uint256 hatID) external nonReentrant returns (bool) {\n        require(hatID == SELF_HAT_ID || hatID < hats.length, \"Invalid hat ID\");\n        changeHatInternal(msg.sender, hatID);\n        mintInternal(mintAmount);\n        return true;\n    }\n\n    /**\n     * @dev IRToken.mintWithNewHat implementation\n     */\n    function mintWithNewHat(uint256 mintAmount,\n        address[] calldata recipients,\n        uint32[] calldata proportions) external nonReentrant returns (bool) {\n        uint256 hatID = createHatInternal(recipients, proportions);\n        changeHatInternal(msg.sender, hatID);\n\n        mintInternal(mintAmount);\n\n        return true;\n    }\n\n    /**\n     * @dev IRToken.redeem implementation\n     *      It withdraws equal amount of initially supplied underlying assets\n     */\n    function redeem(uint256 redeemTokens) external nonReentrant returns (bool) {\n        address src = msg.sender;\n        payInterestInternal(src);\n        redeemInternal(src, redeemTokens);\n        return true;\n    }\n\n    /// @dev IRToken.redeemAll implementation\n    function redeemAll() external nonReentrant returns (bool) {\n        address src = msg.sender;\n        payInterestInternal(src);\n        redeemInternal(src, accounts[src].rAmount);\n        return true;\n    }\n\n    /// @dev IRToken.redeemAndTransfer implementation\n    function redeemAndTransfer(address redeemTo, uint256 redeemTokens) external nonReentrant returns (bool) {\n        address src = msg.sender;\n        payInterestInternal(src);\n        redeemInternal(redeemTo, redeemTokens);\n        return true;\n    }\n\n    /// @dev IRToken.redeemAndTransferAll implementation\n    function redeemAndTransferAll(address redeemTo) external nonReentrant returns (bool) {\n        address src = msg.sender;\n        payInterestInternal(src);\n        redeemInternal(redeemTo, accounts[src].rAmount);\n        return true;\n    }\n\n     /// @dev IRToken.createHat implementation\n    function createHat(\n        address[] calldata recipients,\n        uint32[] calldata proportions,\n        bool doChangeHat) external nonReentrant returns (uint256 hatID) {\n        hatID = createHatInternal(recipients, proportions);\n        if (doChangeHat) {\n            changeHatInternal(msg.sender, hatID);\n        }\n    }\n\n    /// @dev IRToken.changeHat implementation\n    function changeHat(uint256 hatID) external nonReentrant returns (bool) {\n        changeHatInternal(msg.sender, hatID);\n        return true;\n    }\n\n    /// @dev IRToken.getMaximumHatID implementation\n    function getMaximumHatID() external view returns (uint256 hatID) {\n        return hats.length - 1;\n    }\n\n    /// @dev IRToken.getHatByAddress implementation\n    function getHatByAddress(address owner) external view returns (\n        uint256 hatID,\n        address[] memory recipients,\n        uint32[] memory proportions) {\n        hatID = accounts[owner].hatID;\n        if (hatID != 0 && hatID != SELF_HAT_ID) {\n            Hat memory hat = hats[hatID];\n            recipients = hat.recipients;\n            proportions = hat.proportions;\n        } else {\n            recipients = new address[](0);\n            proportions = new uint32[](0);\n        }\n    }\n\n    /// @dev IRToken.getHatByID implementation\n    function getHatByID(uint256 hatID) external view returns (\n        address[] memory recipients,\n        uint32[] memory proportions) {\n        if (hatID != 0 && hatID != SELF_HAT_ID) {\n            Hat memory hat = hats[hatID];\n            recipients = hat.recipients;\n            proportions = hat.proportions;\n        } else {\n            recipients = new address[](0);\n            proportions = new uint32[](0);\n        }\n    }\n\n    /// @dev IRToken.receivedSavingsOf implementation\n    function receivedSavingsOf(address owner) external view returns (uint256 amount) {\n        Account storage account = accounts[owner];\n        uint256 rGross =\n            account.sInternalAmount\n            .mul(ias.exchangeRateStored())\n            .div(savingAssetConversionRate); // the 1e18 decimals should be cancelled out\n        return rGross;\n    }\n\n    /// @dev IRToken.receivedLoanOf implementation\n    function receivedLoanOf(address owner) external view returns (uint256 amount) {\n        Account storage account = accounts[owner];\n        return account.lDebt;\n    }\n\n    /// @dev IRToken.interestPayableOf implementation\n    function interestPayableOf(address owner) external view returns (uint256 amount) {\n        Account storage account = accounts[owner];\n        return getInterestPayableOf(account);\n    }\n\n    /// @dev IRToken.payInterest implementation\n    function payInterest(address owner) external nonReentrant returns (bool) {\n        payInterestInternal(owner);\n        return true;\n    }\n\n    /// @dev IRToken.getAccountStats implementation!1\n    function getGlobalStats() external view returns (GlobalStats memory) {\n        uint256 totalSavingsAmount;\n        totalSavingsAmount +=\n            savingAssetOrignalAmount\n            .mul(ias.exchangeRateStored())\n            .div(10 ** 18);\n        return GlobalStats({\n            totalSupply: totalSupply,\n            totalSavingsAmount: totalSavingsAmount\n        });\n    }\n\n    /// @dev IRToken.getAccountStats implementation\n    function getAccountStats(address owner) external view returns (AccountStats memory) {\n        Account storage account = accounts[owner];\n        return account.stats;\n    }\n\n    /// @dev IRToken.getCurrentSavingStrategy implementation\n    function getCurrentSavingStrategy() external view returns (address) {\n        return address(ias);\n    }\n\n    /// @dev IRToken.getSavingAssetBalance implementation\n    function getSavingAssetBalance() external view\n        returns (uint256 nAmount, uint256 sAmount) {\n        sAmount = savingAssetOrignalAmount;\n        nAmount = sAmount\n            .mul(ias.exchangeRateStored())\n            .div(10 ** 18);\n    }\n\n    /// @dev IRToken.changeAllocationStrategy implementation\n    function changeAllocationStrategy(IAllocationStrategy allocationStrategy) external nonReentrant onlyOwner {\n        require(allocationStrategy.underlying() == address(token), \"New strategy should have the same underlying asset\");\n        IAllocationStrategy oldIas = ias;\n        ias = allocationStrategy;\n        // redeem everything from the old strategy\n        uint256 sOriginalBurned = oldIas.redeemUnderlying(totalSupply);\n        // invest everything into the new strategy\n        token.transferFrom(msg.sender, address(this), totalSupply);\n        token.approve(address(ias), totalSupply);\n        uint256 sOriginalCreated = ias.investUnderlying(totalSupply);\n        // calculate new saving asset conversion rate\n        // if new original saving asset is 2x in amount\n        // then the conversion of internal amount should be also 2x\n        savingAssetConversionRate =\n            sOriginalCreated\n            .mul(10 ** 18)\n            .div(sOriginalBurned);\n    }\n\n    //\n    // internal\n    //\n\n    /// @dev Current saving strategy\n    IAllocationStrategy private ias;\n\n    /// @dev Underlying token\n    IERC20 private token;\n\n    /// @dev Saving assets original amount\n    uint256 private savingAssetOrignalAmount;\n\n    /// @dev Saving asset original to internal amount conversion rate.\n    ///      - It has 18 decimals\n    ///      - It starts with value 1.\n    ///      - Each strategy switching results a new conversion rate\n    uint256 private savingAssetConversionRate = 10 ** 18;\n\n    /// @dev Saving assets exchange rate with\n\n    /// @dev Approved token transfer amounts on behalf of others\n    mapping(address => mapping(address => uint256)) private transferAllowances;\n\n    /// @dev Hat list\n    Hat[] private hats;\n\n    /// @dev Account structure\n    struct Account {\n        //\n        // Essential info\n        //\n        /// @dev ID of the hat selected for the account\n        uint256 hatID;\n        /// @dev Redeemable token balance for the account\n        uint256 rAmount;\n        /// @dev Redeemable token balance portion that is from interest payment\n        uint256 rInterest;\n        /// @dev Mapping of recipients and their amount of debt\n        mapping (address => uint256) lRecipients;\n        /// @dev Loan debt amount for the account\n        uint256 lDebt;\n        /// @dev Saving asset amount internal\n        uint256 sInternalAmount;\n\n        /// @dev Stats\n        AccountStats stats;\n    }\n\n    /// @dev Account mapping\n    mapping (address => Account) private accounts;\n\n    /**\n     * @dev Transfer `tokens` tokens from `src` to `dst` by `spender`\n            Called by both `transfer` and `transferFrom` internally\n     * @param spender The address of the account performing the transfer\n     * @param src The address of the source account\n     * @param dst The address of the destination account\n     * @param tokens The number of tokens to transfer\n     * @return Whether or not the transfer succeeded\n     */\n    function transferInternal(address spender, address src, address dst, uint256 tokens) internal returns (bool) {\n        require(src != dst, \"src should not equal dst\");\n\n        // pay the interest before doing the transfer\n        payInterestInternal(src);\n\n        require(accounts[src].rAmount >= tokens, \"Not enough balance to transfer\");\n\n        /* Get the allowance, infinite for the account owner */\n        uint256 startingAllowance = 0;\n        if (spender == src) {\n            startingAllowance = uint256(-1);\n        } else {\n            startingAllowance = transferAllowances[src][spender];\n        }\n        require(startingAllowance >= tokens, \"Not enough allowance for transfer\");\n\n        /* Do the calculations, checking for {under,over}flow */\n        uint256 allowanceNew = startingAllowance.sub(tokens);\n        uint256 srcTokensNew = accounts[src].rAmount.sub(tokens);\n        uint256 dstTokensNew = accounts[dst].rAmount.add(tokens);\n\n        /////////////////////////\n        // EFFECTS & INTERACTIONS\n        // (No safe failures beyond this point)\n\n        // apply hat inheritance rule\n        if (accounts[src].hatID != 0 && accounts[dst].hatID == 0) {\n            changeHatInternal(dst, accounts[src].hatID);\n        }\n\n        accounts[src].rAmount = srcTokensNew;\n        accounts[dst].rAmount = dstTokensNew;\n\n        /* Eat some of the allowance (if necessary) */\n        if (startingAllowance != uint256(-1)) {\n            transferAllowances[src][spender] = allowanceNew;\n        }\n\n        // lRecipients adjustments\n        uint256 sInternalAmountCollected = estimateAndRecollectLoans(src, tokens);\n        distributeLoans(dst, tokens, sInternalAmountCollected);\n\n        // rInterest adjustment for src\n        if (accounts[src].rInterest > accounts[src].rAmount) {\n            accounts[src].rInterest = accounts[src].rAmount;\n        }\n\n        /* We emit a Transfer event */\n        emit Transfer(src, dst, tokens);\n\n        return true;\n    }\n\n    /**\n     * @dev Sender supplies assets into the market and receives rTokens in exchange\n     * @dev Invest into underlying assets immediately\n     * @param mintAmount The amount of the underlying asset to supply\n     */\n    function mintInternal(uint256 mintAmount) internal {\n        require(token.allowance(msg.sender, address(this)) >= mintAmount, \"Not enough allowance\");\n\n        Account storage account = accounts[msg.sender];\n\n        // create saving assets\n        token.transferFrom(msg.sender, address(this), mintAmount);\n        token.approve(address(ias), mintAmount);\n        uint256 sOriginalCreated = ias.investUnderlying(mintAmount);\n\n        // update global and account r balances\n        totalSupply = totalSupply.add(mintAmount);\n        account.rAmount = account.rAmount.add(mintAmount);\n\n        // update global stats\n        savingAssetOrignalAmount += sOriginalCreated;\n\n        // distribute saving assets as loans to recipients\n        uint256 sInternalCreated =\n            sOriginalCreated\n            .mul(savingAssetConversionRate)\n            .div(10 ** 18);\n        distributeLoans(msg.sender, mintAmount, sInternalCreated);\n\n        emit Mint(msg.sender, mintAmount);\n        emit Transfer(address(this), msg.sender, mintAmount);\n    }\n\n    /**\n     * @notice Sender redeems rTokens in exchange for the underlying asset\n     * @dev Withdraw equal amount of initially supplied underlying assets\n     * @param redeemTo Destination address to send the redeemed tokens to\n     * @param redeemAmount The number of rTokens to redeem into underlying\n     */\n    function redeemInternal(address redeemTo, uint256 redeemAmount) internal {\n        Account storage account = accounts[msg.sender];\n        require(redeemAmount > 0, \"Redeem amount cannot be zero\");\n        require(redeemAmount <= account.rAmount, \"Not enough balance to redeem\");\n\n        uint256 sOriginalBurned = redeemAndRecollectLoans(msg.sender, redeemAmount);\n\n        // update Account r balances and global statistics\n        account.rAmount = account.rAmount.sub(redeemAmount);\n        if (account.rInterest > account.rAmount) {\n            account.rInterest = account.rAmount;\n        }\n        totalSupply = totalSupply.sub(redeemAmount);\n\n        // update global stats\n        if (savingAssetOrignalAmount > sOriginalBurned) {\n            savingAssetOrignalAmount -= sOriginalBurned;\n        } else {\n            savingAssetOrignalAmount = 0;\n        }\n\n        // transfer the token back\n        token.transfer(redeemTo, redeemAmount);\n\n        emit Transfer(msg.sender, address(this), redeemAmount);\n        emit Redeem(msg.sender, redeemTo, redeemAmount);\n    }\n\n    /**\n     * @dev Create a new Hat\n     * @param recipients List of beneficial recipients\n     * @param proportions Relative proportions of benefits received by the recipients\n     */\n    function createHatInternal(\n        address[] memory recipients,\n        uint32[] memory proportions) internal returns (uint256 hatID) {\n        uint i;\n\n        require(recipients.length > 0, \"Invalid hat: at least one recipient\");\n        require(recipients.length == proportions.length, \"Invalid hat: length not matching\");\n\n        // normalize the proportions\n        uint256 totalProportions = 0;\n        for (i = 0; i < recipients.length; ++i) {\n            require(proportions[i] > 0, \"Invalid hat: proportion should be larger than 0\");\n            totalProportions += uint256(proportions[i]);\n        }\n        for (i = 0; i < proportions.length; ++i) {\n            proportions[i] = uint32(\n                uint256(proportions[i])\n                * uint256(PROPORTION_BASE)\n                / totalProportions);\n        }\n\n        hatID = hats.push(Hat(\n            recipients,\n            proportions\n        )) - 1;\n        emit HatCreated(hatID);\n    }\n\n    /**\n     * @dev Change the hat for `owner`\n     * @param owner Account owner\n     * @param hatID The id of the Hat\n     */\n    function changeHatInternal(address owner, uint256 hatID) internal {\n        Account storage account = accounts[owner];\n        if (account.rAmount > 0) {\n            uint256 sInternalAmountCollected = estimateAndRecollectLoans(owner, account.rAmount);\n            account.hatID = hatID;\n            distributeLoans(owner, account.rAmount, sInternalAmountCollected);\n        } else {\n            account.hatID = hatID;\n        }\n        emit HatChanged(owner, hatID);\n    }\n\n    /**\n     * @dev Get interest payable of the account\n     */\n    function getInterestPayableOf(Account storage account) internal view returns (uint256) {\n        uint256 rGross =\n            account.sInternalAmount\n            .mul(ias.exchangeRateStored())\n            .div(savingAssetConversionRate); // the 1e18 decimals should be cancelled out\n        if (rGross > (account.lDebt + account.rInterest)) {\n            return rGross - account.lDebt - account.rInterest;\n        } else {\n            // no interest accumulated yet or even negative interest rate!?\n            return 0;\n        }\n    }\n\n    /**\n     * @dev Distribute the incoming tokens to the recipients as loans.\n     *      The tokens are immediately invested into the saving strategy and\n     *      add to the sAmount of the recipient account.\n     *      Recipient also inherits the owner's hat if it does already have one.\n     * @param owner Owner account address\n     * @param rAmount rToken amount being loaned to the recipients\n     * @param sInternalAmount Amount of saving assets (internal amount) being given to the recipients\n     */\n    function distributeLoans(\n            address owner,\n            uint256 rAmount,\n            uint256 sInternalAmount) internal {\n        Account storage account = accounts[owner];\n        Hat storage hat = hats[account.hatID == SELF_HAT_ID ? 0 : account.hatID];\n        bool[] memory recipientsNeedsNewHat = new bool[](hat.recipients.length);\n        uint i;\n        if (hat.recipients.length > 0) {\n            uint256 rLeft = rAmount;\n            uint256 sInternalLeft = sInternalAmount;\n            for (i = 0; i < hat.proportions.length; ++i) {\n                Account storage recipient = accounts[hat.recipients[i]];\n                bool isLastRecipient = i == (hat.proportions.length - 1);\n\n                // inherit the hat if needed\n                if (recipient.hatID == 0) {\n                    recipientsNeedsNewHat[i] = true;\n                }\n\n                uint256 lDebtRecipient = isLastRecipient ? rLeft :\n                    rAmount\n                    * hat.proportions[i]\n                    / PROPORTION_BASE;\n                account.lRecipients[hat.recipients[i]] = account.lRecipients[hat.recipients[i]].add(lDebtRecipient);\n                recipient.lDebt = recipient.lDebt.add(lDebtRecipient);\n                // leftover adjustments\n                if (rLeft > lDebtRecipient) {\n                    rLeft -= lDebtRecipient;\n                } else {\n                    rLeft = 0;\n                }\n\n                uint256 sInternalAmountRecipient = isLastRecipient ? sInternalLeft:\n                    sInternalAmount\n                    * hat.proportions[i]\n                    / PROPORTION_BASE;\n                recipient.sInternalAmount = recipient.sInternalAmount.add(sInternalAmountRecipient);\n                // leftover adjustments\n                if (sInternalLeft >= sInternalAmountRecipient) {\n                    sInternalLeft -= sInternalAmountRecipient;\n                } else {\n                    sInternalLeft = 0;\n                }\n            }\n        } else {\n            // Account uses the zero hat, give all interest to the owner\n            account.lDebt = account.lDebt.add(rAmount);\n            account.sInternalAmount = account.sInternalAmount.add(sInternalAmount);\n        }\n\n        // apply to new hat owners\n        for (i = 0; i < hat.proportions.length; ++i) {\n            if (recipientsNeedsNewHat[i]) {\n                changeHatInternal(hat.recipients[i], account.hatID);\n            }\n        }\n    }\n\n    /**\n     * @dev Recollect loans from the recipients for further distribution\n     *      without actually redeeming the saving assets\n     * @param owner Owner account address\n     * @param rAmount rToken amount neeeds to be recollected from the recipients\n     *                by giving back estimated amount of saving assets\n     * @return Estimated amount of saving assets (internal) needs to recollected\n     */\n    function estimateAndRecollectLoans(\n        address owner,\n        uint256 rAmount) internal returns (uint256 sInternalAmount) {\n        Account storage account = accounts[owner];\n        Hat storage hat = hats[account.hatID == SELF_HAT_ID ? 0 : account.hatID];\n        // accrue interest so estimate is up to date\n        ias.accrueInterest();\n        sInternalAmount = rAmount\n            .mul(savingAssetConversionRate)\n            .div(ias.exchangeRateStored()); // the 1e18 decimals should be cancelled out\n        recollectLoans(account, hat, rAmount, sInternalAmount);\n    }\n\n    /**\n     * @dev Recollect loans from the recipients for further distribution\n     *      by redeeming the saving assets in `rAmount`\n     * @param owner Owner account address\n     * @param rAmount rToken amount neeeds to be recollected from the recipients\n     *                by redeeming equivalent value of the saving assets\n     * @return Amount of saving assets redeemed for rAmount of tokens.\n     */\n    function redeemAndRecollectLoans(\n        address owner,\n        uint256 rAmount) internal returns (uint256 sOriginalBurned) {\n        Account storage account = accounts[owner];\n        Hat storage hat = hats[account.hatID == SELF_HAT_ID ? 0 : account.hatID];\n        sOriginalBurned = ias.redeemUnderlying(rAmount);\n        uint256 sInternalBurned =\n            sOriginalBurned\n            .mul(savingAssetConversionRate)\n            .div(10 ** 18);\n        recollectLoans(account, hat, rAmount, sInternalBurned);\n    }\n\n    /**\n     * @dev Recollect loan from the recipients\n     * @param account Owner account\n     * @param hat     Owner's hat\n     * @param rAmount rToken amount being written of from the recipients\n     * @param sInternalAmount Amount of sasving assets (internal amount) recollected from the recipients\n     */\n    function recollectLoans(\n        Account storage account,\n        Hat storage hat,\n        uint256 rAmount,\n        uint256 sInternalAmount) internal {\n        uint i;\n        if (hat.recipients.length > 0) {\n            uint256 rLeft = rAmount;\n            uint256 sInternalLeft = sInternalAmount;\n            for (i = 0; i < hat.proportions.length; ++i) {\n                Account storage recipient = accounts[hat.recipients[i]];\n                bool isLastRecipient = i == (hat.proportions.length - 1);\n\n                uint256 lDebtRecipient = isLastRecipient ? rLeft: rAmount\n                    * hat.proportions[i]\n                    / PROPORTION_BASE;\n                if (recipient.lDebt > lDebtRecipient) {\n                    recipient.lDebt -= lDebtRecipient;\n                } else {\n                    recipient.lDebt = 0;\n                }\n                if (account.lRecipients[hat.recipients[i]] > lDebtRecipient) {\n                    account.lRecipients[hat.recipients[i]] -= lDebtRecipient;\n                } else {\n                    account.lRecipients[hat.recipients[i]] = 0;\n                }\n                // leftover adjustments\n                if (rLeft > lDebtRecipient) {\n                    rLeft -= lDebtRecipient;\n                } else {\n                    rLeft = 0;\n                }\n\n                uint256 sInternalAmountRecipient = isLastRecipient ? sInternalLeft:\n                    sInternalAmount\n                    * hat.proportions[i]\n                    / PROPORTION_BASE;\n                if (recipient.sInternalAmount > sInternalAmountRecipient) {\n                    recipient.sInternalAmount -= sInternalAmountRecipient;\n                } else {\n                    recipient.sInternalAmount = 0;\n                }\n                // leftover adjustments\n                if (sInternalLeft >= sInternalAmountRecipient) {\n                    sInternalLeft -= sInternalAmountRecipient;\n                } else {\n                    sInternalLeft = 0;\n                }\n            }\n        } else {\n            // Account uses the zero hat, recollect interests from the owner\n            if (account.lDebt > rAmount) {\n                account.lDebt -= rAmount;\n            } else {\n                account.lDebt = 0;\n            }\n            if (account.sInternalAmount > sInternalAmount) {\n                account.sInternalAmount -= sInternalAmount;\n            } else {\n                account.sInternalAmount = 0;\n            }\n        }\n    }\n\n    /**\n     * @dev pay interest to the owner\n     * @param owner Account owner address\n     */\n    function payInterestInternal(address owner) internal {\n        Account storage account = accounts[owner];\n\n        ias.accrueInterest();\n        uint256 interestAmount = getInterestPayableOf(account);\n\n        if (interestAmount > 0) {\n            account.stats.cumulativeInterest = account.stats.cumulativeInterest.add(interestAmount);\n            account.rInterest = account.rInterest.add(interestAmount);\n            account.rAmount = account.rAmount.add(interestAmount);\n            totalSupply = totalSupply.add(interestAmount);\n            emit InterestPaid(owner, interestAmount);\n            emit Transfer(address(this), owner, interestAmount);\n        }\n    }\n}\n",
  "sourcePath": "/home/thisguy/repos/tribute/tribute-rDAI/rtoken-contracts/contracts/RToken.sol",
  "compiler": {
    "name": "solc",
    "version": "0.5.11+commit.c082d0b4.Emscripten.clang"
  },
  "schemaVersion": "3.0.11",
  "updatedAt": "2019-09-30T06:06:11.759Z",
  "devdoc": {
    "methods": {
      "changeAllocationStrategy(address)": {
        "details": "IRToken.changeAllocationStrategy implementation"
      },
      "changeHat(uint256)": {
        "details": "IRToken.changeHat implementation"
      },
      "createHat(address[],uint32[],bool)": {
        "details": "IRToken.createHat implementation"
      },
      "getAccountStats(address)": {
        "details": "IRToken.getAccountStats implementation"
      },
      "getCurrentSavingStrategy()": {
        "details": "IRToken.getCurrentSavingStrategy implementation"
      },
      "getGlobalStats()": {
        "details": "IRToken.getAccountStats implementation!1"
      },
      "getHatByAddress(address)": {
        "details": "IRToken.getHatByAddress implementation"
      },
      "getHatByID(uint256)": {
        "details": "IRToken.getHatByID implementation"
      },
      "getMaximumHatID()": {
        "details": "IRToken.getMaximumHatID implementation"
      },
      "getSavingAssetBalance()": {
        "details": "IRToken.getSavingAssetBalance implementation"
      },
      "interestPayableOf(address)": {
        "details": "IRToken.interestPayableOf implementation"
      },
      "isOwner()": {
        "details": "Returns true if the caller is the current owner."
      },
      "mint(uint256)": {
        "details": "IRToken.mint implementation"
      },
      "mintWithNewHat(uint256,address[],uint32[])": {
        "details": "IRToken.mintWithNewHat implementation"
      },
      "mintWithSelectedHat(uint256,uint256)": {
        "details": "IRToken.mintWithSelectedHat implementation"
      },
      "owner()": {
        "details": "Returns the address of the current owner."
      },
      "payInterest(address)": {
        "details": "IRToken.payInterest implementation"
      },
      "receivedLoanOf(address)": {
        "details": "IRToken.receivedLoanOf implementation"
      },
      "receivedSavingsOf(address)": {
        "details": "IRToken.receivedSavingsOf implementation"
      },
      "redeem(uint256)": {
        "details": "IRToken.redeem implementation     It withdraws equal amount of initially supplied underlying assets"
      },
      "redeemAll()": {
        "details": "IRToken.redeemAll implementation"
      },
      "redeemAndTransfer(address,uint256)": {
        "details": "IRToken.redeemAndTransfer implementation"
      },
      "redeemAndTransferAll(address)": {
        "details": "IRToken.redeemAndTransferAll implementation"
      },
      "renounceOwnership()": {
        "details": "Leaves the contract without owner. It will not be possible to call `onlyOwner` functions anymore. Can only be called by the current owner.     * > Note: Renouncing ownership will leave the contract without an owner, thereby removing any functionality that is only available to the owner."
      },
      "transferAll(address)": {
        "details": "IRToken.transferAll implementation"
      },
      "transferAllFrom(address,address)": {
        "details": "IRToken.transferAllFrom implementation"
      },
      "transferOwnership(address)": {
        "details": "Transfers ownership of the contract to a new account (`newOwner`). Can only be called by the current owner."
      }
    }
  },
  "userdoc": {
    "methods": {
      "allowance(address,address)": {
        "notice": "Returns the remaining number of tokens that `spender` will be allowed to spend on behalf of `owner` through `transferFrom`. This is zero by default.     * This value changes when `approve` or `transferFrom` are called."
      },
      "approve(address,uint256)": {
        "notice": "Sets `amount` as the allowance of `spender` over the caller's tokens.     * Returns a boolean value indicating whether the operation succeeded.     * > Beware that changing an allowance with this method brings the risk that someone may use both the old and the new allowance by unfortunate transaction ordering. One possible solution to mitigate this race condition is to first reduce the spender's allowance to 0 and set the desired value afterwards: https://github.com/ethereum/EIPs/issues/20#issuecomment-263524729     * Emits an `Approval` event."
      },
      "balanceOf(address)": {
        "notice": "Returns the amount of tokens owned by `account`."
      },
      "constructor": "Create rToken linked with cToken at `cToken_`",
      "transfer(address,uint256)": {
        "notice": "Moves `amount` tokens from the caller's account to `dst`.     * Returns a boolean value indicating whether the operation succeeded.     * Emits a `Transfer` event. May also emit `InterestPaid` event."
      },
      "transferFrom(address,address,uint256)": {
        "notice": "Moves `amount` tokens from `sender` to `recipient` using the allowance mechanism. `amount` is then deducted from the caller's allowance.     * Returns a boolean value indicating whether the operation succeeded.     * Emits a `Transfer` event."
      }
    },
    "notice": "RToken an ERC20 token that is 1:1 redeemable to its underlying ERC20 token."
  }
}